{
  "contractName": "NFTCollection",
  "abi": [
    {
      "inputs": [
        {
          "internalType": "string",
          "name": "baseURI",
          "type": "string"
        }
      ],
      "stateMutability": "nonpayable",
      "type": "constructor"
    },
    {
      "anonymous": false,
      "inputs": [
        {
          "indexed": true,
          "internalType": "address",
          "name": "owner",
          "type": "address"
        },
        {
          "indexed": true,
          "internalType": "address",
          "name": "approved",
          "type": "address"
        },
        {
          "indexed": true,
          "internalType": "uint256",
          "name": "tokenId",
          "type": "uint256"
        }
      ],
      "name": "Approval",
      "type": "event"
    },
    {
      "anonymous": false,
      "inputs": [
        {
          "indexed": true,
          "internalType": "address",
          "name": "owner",
          "type": "address"
        },
        {
          "indexed": true,
          "internalType": "address",
          "name": "operator",
          "type": "address"
        },
        {
          "indexed": false,
          "internalType": "bool",
          "name": "approved",
          "type": "bool"
        }
      ],
      "name": "ApprovalForAll",
      "type": "event"
    },
    {
      "anonymous": false,
      "inputs": [
        {
          "indexed": true,
          "internalType": "address",
          "name": "previousOwner",
          "type": "address"
        },
        {
          "indexed": true,
          "internalType": "address",
          "name": "newOwner",
          "type": "address"
        }
      ],
      "name": "OwnershipTransferred",
      "type": "event"
    },
    {
      "anonymous": false,
      "inputs": [
        {
          "indexed": true,
          "internalType": "address",
          "name": "from",
          "type": "address"
        },
        {
          "indexed": true,
          "internalType": "address",
          "name": "to",
          "type": "address"
        },
        {
          "indexed": true,
          "internalType": "uint256",
          "name": "tokenId",
          "type": "uint256"
        }
      ],
      "name": "Transfer",
      "type": "event"
    },
    {
      "inputs": [],
      "name": "MAX_MINT_PER_USER",
      "outputs": [
        {
          "internalType": "uint256",
          "name": "",
          "type": "uint256"
        }
      ],
      "stateMutability": "view",
      "type": "function",
      "constant": true
    },
    {
      "inputs": [],
      "name": "MAX_SUPPLY",
      "outputs": [
        {
          "internalType": "uint256",
          "name": "",
          "type": "uint256"
        }
      ],
      "stateMutability": "view",
      "type": "function",
      "constant": true
    },
    {
      "inputs": [],
      "name": "PRICE",
      "outputs": [
        {
          "internalType": "uint256",
          "name": "",
          "type": "uint256"
        }
      ],
      "stateMutability": "view",
      "type": "function",
      "constant": true
    },
    {
      "inputs": [
        {
          "internalType": "address",
          "name": "to",
          "type": "address"
        },
        {
          "internalType": "uint256",
          "name": "tokenId",
          "type": "uint256"
        }
      ],
      "name": "approve",
      "outputs": [],
      "stateMutability": "nonpayable",
      "type": "function"
    },
    {
      "inputs": [
        {
          "internalType": "address",
          "name": "owner",
          "type": "address"
        }
      ],
      "name": "balanceOf",
      "outputs": [
        {
          "internalType": "uint256",
          "name": "",
          "type": "uint256"
        }
      ],
      "stateMutability": "view",
      "type": "function",
      "constant": true
    },
    {
      "inputs": [
        {
          "internalType": "uint256",
          "name": "tokenId",
          "type": "uint256"
        }
      ],
      "name": "getApproved",
      "outputs": [
        {
          "internalType": "address",
          "name": "",
          "type": "address"
        }
      ],
      "stateMutability": "view",
      "type": "function",
      "constant": true
    },
    {
      "inputs": [
        {
          "internalType": "address",
          "name": "owner",
          "type": "address"
        },
        {
          "internalType": "address",
          "name": "operator",
          "type": "address"
        }
      ],
      "name": "isApprovedForAll",
      "outputs": [
        {
          "internalType": "bool",
          "name": "",
          "type": "bool"
        }
      ],
      "stateMutability": "view",
      "type": "function",
      "constant": true
    },
    {
      "inputs": [],
      "name": "name",
      "outputs": [
        {
          "internalType": "string",
          "name": "",
          "type": "string"
        }
      ],
      "stateMutability": "view",
      "type": "function",
      "constant": true
    },
    {
      "inputs": [],
      "name": "owner",
      "outputs": [
        {
          "internalType": "address",
          "name": "",
          "type": "address"
        }
      ],
      "stateMutability": "view",
      "type": "function",
      "constant": true
    },
    {
      "inputs": [
        {
          "internalType": "uint256",
          "name": "tokenId",
          "type": "uint256"
        }
      ],
      "name": "ownerOf",
      "outputs": [
        {
          "internalType": "address",
          "name": "",
          "type": "address"
        }
      ],
      "stateMutability": "view",
      "type": "function",
      "constant": true
    },
    {
      "inputs": [],
      "name": "renounceOwnership",
      "outputs": [],
      "stateMutability": "nonpayable",
      "type": "function"
    },
    {
      "inputs": [
        {
          "internalType": "address",
          "name": "from",
          "type": "address"
        },
        {
          "internalType": "address",
          "name": "to",
          "type": "address"
        },
        {
          "internalType": "uint256",
          "name": "tokenId",
          "type": "uint256"
        }
      ],
      "name": "safeTransferFrom",
      "outputs": [],
      "stateMutability": "nonpayable",
      "type": "function"
    },
    {
      "inputs": [
        {
          "internalType": "address",
          "name": "from",
          "type": "address"
        },
        {
          "internalType": "address",
          "name": "to",
          "type": "address"
        },
        {
          "internalType": "uint256",
          "name": "tokenId",
          "type": "uint256"
        },
        {
          "internalType": "bytes",
          "name": "data",
          "type": "bytes"
        }
      ],
      "name": "safeTransferFrom",
      "outputs": [],
      "stateMutability": "nonpayable",
      "type": "function"
    },
    {
      "inputs": [
        {
          "internalType": "address",
          "name": "operator",
          "type": "address"
        },
        {
          "internalType": "bool",
          "name": "approved",
          "type": "bool"
        }
      ],
      "name": "setApprovalForAll",
      "outputs": [],
      "stateMutability": "nonpayable",
      "type": "function"
    },
    {
      "inputs": [
        {
          "internalType": "bytes4",
          "name": "interfaceId",
          "type": "bytes4"
        }
      ],
      "name": "supportsInterface",
      "outputs": [
        {
          "internalType": "bool",
          "name": "",
          "type": "bool"
        }
      ],
      "stateMutability": "view",
      "type": "function",
      "constant": true
    },
    {
      "inputs": [],
      "name": "symbol",
      "outputs": [
        {
          "internalType": "string",
          "name": "",
          "type": "string"
        }
      ],
      "stateMutability": "view",
      "type": "function",
      "constant": true
    },
    {
      "inputs": [
        {
          "internalType": "uint256",
          "name": "index",
          "type": "uint256"
        }
      ],
      "name": "tokenByIndex",
      "outputs": [
        {
          "internalType": "uint256",
          "name": "",
          "type": "uint256"
        }
      ],
      "stateMutability": "view",
      "type": "function",
      "constant": true
    },
    {
      "inputs": [
        {
          "internalType": "address",
          "name": "owner",
          "type": "address"
        },
        {
          "internalType": "uint256",
          "name": "index",
          "type": "uint256"
        }
      ],
      "name": "tokenOfOwnerByIndex",
      "outputs": [
        {
          "internalType": "uint256",
          "name": "",
          "type": "uint256"
        }
      ],
      "stateMutability": "view",
      "type": "function",
      "constant": true
    },
    {
      "inputs": [
        {
          "internalType": "uint256",
          "name": "tokenId",
          "type": "uint256"
        }
      ],
      "name": "tokenURI",
      "outputs": [
        {
          "internalType": "string",
          "name": "",
          "type": "string"
        }
      ],
      "stateMutability": "view",
      "type": "function",
      "constant": true
    },
    {
      "inputs": [],
      "name": "totalSupply",
      "outputs": [
        {
          "internalType": "uint256",
          "name": "",
          "type": "uint256"
        }
      ],
      "stateMutability": "view",
      "type": "function",
      "constant": true
    },
    {
      "inputs": [
        {
          "internalType": "address",
          "name": "from",
          "type": "address"
        },
        {
          "internalType": "address",
          "name": "to",
          "type": "address"
        },
        {
          "internalType": "uint256",
          "name": "tokenId",
          "type": "uint256"
        }
      ],
      "name": "transferFrom",
      "outputs": [],
      "stateMutability": "nonpayable",
      "type": "function"
    },
    {
      "inputs": [
        {
          "internalType": "address",
          "name": "newOwner",
          "type": "address"
        }
      ],
      "name": "transferOwnership",
      "outputs": [],
      "stateMutability": "nonpayable",
      "type": "function"
    },
    {
      "inputs": [
        {
          "internalType": "uint256",
          "name": "numberOfTokens",
          "type": "uint256"
        }
      ],
      "name": "mint",
      "outputs": [],
      "stateMutability": "payable",
      "type": "function",
      "payable": true
    },
    {
      "inputs": [
        {
          "internalType": "string",
          "name": "baseURI",
          "type": "string"
        }
      ],
      "name": "setBaseURI",
      "outputs": [],
      "stateMutability": "nonpayable",
      "type": "function"
    },
    {
      "inputs": [],
      "name": "withdraw",
      "outputs": [],
      "stateMutability": "nonpayable",
      "type": "function"
    }
  ],
  "bytecode": "0x60806040526001600c553480156200001657600080fd5b50604051620022d7380380620022d7833981016040819052620000399162000208565b6040518060400160405280600d81526020016c27232a21b7b63632b1ba34b7b760991b815250604051806040016040528060048152602001634e46544360e01b81525081600090816200008d91906200036c565b5060016200009c82826200036c565b505050620000b9620000b36200012260201b60201c565b62000126565b6000815111620001105760405162461bcd60e51b815260206004820152601860248201527f42617365205552492063616e6e6f7420626520656d707479000000000000000060448201526064015b60405180910390fd5b6200011b8162000178565b5062000438565b3390565b600a80546001600160a01b038381166001600160a01b0319831681179093556040519116919082907f8be0079c531659141344cd1fd0a4f28419497f9722a3daafe3b4186f6b6457e090600090a35050565b6200018262000194565b600b6200019082826200036c565b5050565b600a546001600160a01b03163314620001f05760405162461bcd60e51b815260206004820181905260248201527f4f776e61626c653a2063616c6c6572206973206e6f7420746865206f776e6572604482015260640162000107565b565b634e487b7160e01b600052604160045260246000fd5b600060208083850312156200021c57600080fd5b82516001600160401b03808211156200023457600080fd5b818501915085601f8301126200024957600080fd5b8151818111156200025e576200025e620001f2565b604051601f8201601f19908116603f01168101908382118183101715620002895762000289620001f2565b816040528281528886848701011115620002a257600080fd5b600093505b82841015620002c65784840186015181850187015292850192620002a7565b600086848301015280965050505050505092915050565b600181811c90821680620002f257607f821691505b6020821081036200031357634e487b7160e01b600052602260045260246000fd5b50919050565b601f8211156200036757600081815260208120601f850160051c81016020861015620003425750805b601f850160051c820191505b8181101562000363578281556001016200034e565b5050505b505050565b81516001600160401b03811115620003885762000388620001f2565b620003a081620003998454620002dd565b8462000319565b602080601f831160018114620003d85760008415620003bf5750858301515b600019600386901b1c1916600185901b17855562000363565b600085815260208120601f198616915b828110156200040957888601518255948401946001909101908401620003e8565b5085821015620004285787850151600019600388901b60f8161c191681555b5050505050600190811b01905550565b611e8f80620004486000396000f3fe6080604052600436106101665760003560e01c80636352211e116100d157806395d89b411161008a578063b88d4fde11610064578063b88d4fde146103f1578063c87b56dd14610411578063e985e9c514610431578063f2fde38b1461047a57600080fd5b806395d89b41146103a9578063a0712d68146103be578063a22cb465146103d157600080fd5b80636352211e1461030657806370a0823114610326578063715018a6146103465780638d859f3e1461035b5780638da5cb5b1461037657806395c11e971461039457600080fd5b80632f745c59116101235780632f745c591461025b57806332cb6b0c1461027b5780633ccfd60b1461029157806342842e0e146102a65780634f6ccce7146102c657806355f804b3146102e657600080fd5b806301ffc9a71461016b57806306fdde03146101a0578063081812fc146101c2578063095ea7b3146101fa57806318160ddd1461021c57806323b872dd1461023b575b600080fd5b34801561017757600080fd5b5061018b610186366004611816565b61049a565b60405190151581526020015b60405180910390f35b3480156101ac57600080fd5b506101b56104c5565b6040516101979190611883565b3480156101ce57600080fd5b506101e26101dd366004611896565b610557565b6040516001600160a01b039091168152602001610197565b34801561020657600080fd5b5061021a6102153660046118cb565b61057e565b005b34801561022857600080fd5b506008545b604051908152602001610197565b34801561024757600080fd5b5061021a6102563660046118f5565b610698565b34801561026757600080fd5b5061022d6102763660046118cb565b6106c9565b34801561028757600080fd5b5061022d61271081565b34801561029d57600080fd5b5061021a61075f565b3480156102b257600080fd5b5061021a6102c13660046118f5565b61079a565b3480156102d257600080fd5b5061022d6102e1366004611896565b6107b5565b3480156102f257600080fd5b5061021a6103013660046119bd565b610848565b34801561031257600080fd5b506101e2610321366004611896565b61085c565b34801561033257600080fd5b5061022d610341366004611a06565b6108bc565b34801561035257600080fd5b5061021a610942565b34801561036757600080fd5b5061022d66b1a2bc2ec5000081565b34801561038257600080fd5b50600a546001600160a01b03166101e2565b3480156103a057600080fd5b5061022d600581565b3480156103b557600080fd5b506101b5610956565b61021a6103cc366004611896565b610965565b3480156103dd57600080fd5b5061021a6103ec366004611a21565b610afe565b3480156103fd57600080fd5b5061021a61040c366004611a5d565b610b09565b34801561041d57600080fd5b506101b561042c366004611896565b610b41565b34801561043d57600080fd5b5061018b61044c366004611ad9565b6001600160a01b03918216600090815260056020908152604080832093909416825291909152205460ff1690565b34801561048657600080fd5b5061021a610495366004611a06565b610ba8565b60006001600160e01b0319821663780e9d6360e01b14806104bf57506104bf82610c21565b92915050565b6060600080546104d490611b0c565b80601f016020809104026020016040519081016040528092919081815260200182805461050090611b0c565b801561054d5780601f106105225761010080835404028352916020019161054d565b820191906000526020600020905b81548152906001019060200180831161053057829003601f168201915b5050505050905090565b600061056282610c71565b506000908152600460205260409020546001600160a01b031690565b60006105898261085c565b9050806001600160a01b0316836001600160a01b0316036105fb5760405162461bcd60e51b815260206004820152602160248201527f4552433732313a20617070726f76616c20746f2063757272656e74206f776e656044820152603960f91b60648201526084015b60405180910390fd5b336001600160a01b03821614806106175750610617813361044c565b6106895760405162461bcd60e51b815260206004820152603d60248201527f4552433732313a20617070726f76652063616c6c6572206973206e6f7420746f60448201527f6b656e206f776e6572206f7220617070726f76656420666f7220616c6c00000060648201526084016105f2565b6106938383610cd0565b505050565b6106a23382610d3e565b6106be5760405162461bcd60e51b81526004016105f290611b46565b610693838383610dbd565b60006106d4836108bc565b82106107365760405162461bcd60e51b815260206004820152602b60248201527f455243373231456e756d657261626c653a206f776e657220696e646578206f7560448201526a74206f6620626f756e647360a81b60648201526084016105f2565b506001600160a01b03919091166000908152600660209081526040808320938352929052205490565b610767610f2e565b6040514790339082156108fc029083906000818181858888f19350505050158015610796573d6000803e3d6000fd5b5050565b61069383838360405180602001604052806000815250610b09565b60006107c060085490565b82106108235760405162461bcd60e51b815260206004820152602c60248201527f455243373231456e756d657261626c653a20676c6f62616c20696e646578206f60448201526b7574206f6620626f756e647360a01b60648201526084016105f2565b6008828154811061083657610836611b93565b90600052602060002001549050919050565b610850610f2e565b600b6107968282611bf7565b6000818152600260205260408120546001600160a01b0316806104bf5760405162461bcd60e51b8152602060048201526018602482015277115490cdcc8c4e881a5b9d985b1a59081d1bdad95b88125160421b60448201526064016105f2565b60006001600160a01b0382166109265760405162461bcd60e51b815260206004820152602960248201527f4552433732313a2061646472657373207a65726f206973206e6f7420612076616044820152683634b21037bbb732b960b91b60648201526084016105f2565b506001600160a01b031660009081526003602052604090205490565b61094a610f2e565b6109546000610f88565b565b6060600180546104d490611b0c565b6127108161097260085490565b61097c9190611ccd565b11156109bf5760405162461bcd60e51b815260206004820152601260248201527145786365656473204d41585f535550504c5960701b60448201526064016105f2565b6109d08166b1a2bc2ec50000611ce0565b341015610a1f5760405162461bcd60e51b815260206004820152601960248201527f45746865722073656e74206973206e6f7420636f72726563740000000000000060448201526064016105f2565b336000908152600d6020526040902054600590610a3d908390611ccd565b1115610a8b5760405162461bcd60e51b815260206004820152601960248201527f45786365656473204d41585f4d494e545f5045525f555345520000000000000060448201526064016105f2565b60005b8181101561079657600c54612710610aa560085490565b1015610aeb57610ab53382610fda565b600c8054906000610ac583611cf7565b9091555050336000908152600d60205260408120805491610ae583611cf7565b91905055505b5080610af681611cf7565b915050610a8e565b610796338383610ff4565b610b133383610d3e565b610b2f5760405162461bcd60e51b81526004016105f290611b46565b610b3b848484846110c2565b50505050565b6060610b4c82610c71565b6000610b566110f5565b90506000815111610b765760405180602001604052806000815250610ba1565b80610b8084611104565b604051602001610b91929190611d10565b6040516020818303038152906040525b9392505050565b610bb0610f2e565b6001600160a01b038116610c155760405162461bcd60e51b815260206004820152602660248201527f4f776e61626c653a206e6577206f776e657220697320746865207a65726f206160448201526564647265737360d01b60648201526084016105f2565b610c1e81610f88565b50565b60006001600160e01b031982166380ac58cd60e01b1480610c5257506001600160e01b03198216635b5e139f60e01b145b806104bf57506301ffc9a760e01b6001600160e01b03198316146104bf565b6000818152600260205260409020546001600160a01b0316610c1e5760405162461bcd60e51b8152602060048201526018602482015277115490cdcc8c4e881a5b9d985b1a59081d1bdad95b88125160421b60448201526064016105f2565b600081815260046020526040902080546001600160a01b0319166001600160a01b0384169081179091558190610d058261085c565b6001600160a01b03167f8c5be1e5ebec7d5bd14f71427d1e84f3dd0314c0f7b2291e5b200ac8c7c3b92560405160405180910390a45050565b600080610d4a8361085c565b9050806001600160a01b0316846001600160a01b03161480610d9157506001600160a01b0380821660009081526005602090815260408083209388168352929052205460ff165b80610db55750836001600160a01b0316610daa84610557565b6001600160a01b0316145b949350505050565b826001600160a01b0316610dd08261085c565b6001600160a01b031614610df65760405162461bcd60e51b81526004016105f290611d3f565b6001600160a01b038216610e585760405162461bcd60e51b8152602060048201526024808201527f4552433732313a207472616e7366657220746f20746865207a65726f206164646044820152637265737360e01b60648201526084016105f2565b610e658383836001611197565b826001600160a01b0316610e788261085c565b6001600160a01b031614610e9e5760405162461bcd60e51b81526004016105f290611d3f565b600081815260046020908152604080832080546001600160a01b03199081169091556001600160a01b0387811680865260038552838620805460001901905590871680865283862080546001019055868652600290945282852080549092168417909155905184937fddf252ad1be2c89b69c2b068fc378daa952ba7f163c4a11628f55a4df523b3ef91a4505050565b600a546001600160a01b031633146109545760405162461bcd60e51b815260206004820181905260248201527f4f776e61626c653a2063616c6c6572206973206e6f7420746865206f776e657260448201526064016105f2565b600a80546001600160a01b038381166001600160a01b0319831681179093556040519116919082907f8be0079c531659141344cd1fd0a4f28419497f9722a3daafe3b4186f6b6457e090600090a35050565b6107968282604051806020016040528060008152506112cb565b816001600160a01b0316836001600160a01b0316036110555760405162461bcd60e51b815260206004820152601960248201527f4552433732313a20617070726f766520746f2063616c6c65720000000000000060448201526064016105f2565b6001600160a01b03838116600081815260056020908152604080832094871680845294825291829020805460ff191686151590811790915591519182527f17307eab39ab6107e8899845ad3d59bd9653f200f220920489ca2b5937696c31910160405180910390a3505050565b6110cd848484610dbd565b6110d9848484846112fe565b610b3b5760405162461bcd60e51b81526004016105f290611d84565b6060600b80546104d490611b0c565b60606000611111836113ff565b600101905060008167ffffffffffffffff81111561113157611131611931565b6040519080825280601f01601f19166020018201604052801561115b576020820181803683370190505b5090508181016020015b600019016f181899199a1a9b1b9c1cb0b131b232b360811b600a86061a8153600a850494508461116557509392505050565b60018111156112065760405162461bcd60e51b815260206004820152603560248201527f455243373231456e756d657261626c653a20636f6e7365637574697665207472604482015274185b9cd9995c9cc81b9bdd081cdd5c1c1bdc9d1959605a1b60648201526084016105f2565b816001600160a01b0385166112625761125d81600880546000838152600960205260408120829055600182018355919091527ff3f7a9fe364faab93b216da50a3214154f22a0a2b415b23a84c8169e8b636ee30155565b611285565b836001600160a01b0316856001600160a01b0316146112855761128585826114d7565b6001600160a01b0384166112a15761129c81611574565b6112c4565b846001600160a01b0316846001600160a01b0316146112c4576112c48482611623565b5050505050565b6112d58383611667565b6112e260008484846112fe565b6106935760405162461bcd60e51b81526004016105f290611d84565b60006001600160a01b0384163b156113f457604051630a85bd0160e11b81526001600160a01b0385169063150b7a0290611342903390899088908890600401611dd6565b6020604051808303816000875af192505050801561137d575060408051601f3d908101601f1916820190925261137a91810190611e13565b60015b6113da573d8080156113ab576040519150601f19603f3d011682016040523d82523d6000602084013e6113b0565b606091505b5080516000036113d25760405162461bcd60e51b81526004016105f290611d84565b805181602001fd5b6001600160e01b031916630a85bd0160e11b149050610db5565b506001949350505050565b60008072184f03e93ff9f4daa797ed6e38ed64bf6a1f0160401b831061143e5772184f03e93ff9f4daa797ed6e38ed64bf6a1f0160401b830492506040015b6d04ee2d6d415b85acef8100000000831061146a576d04ee2d6d415b85acef8100000000830492506020015b662386f26fc10000831061148857662386f26fc10000830492506010015b6305f5e10083106114a0576305f5e100830492506008015b61271083106114b457612710830492506004015b606483106114c6576064830492506002015b600a83106104bf5760010192915050565b600060016114e4846108bc565b6114ee9190611e30565b600083815260076020526040902054909150808214611541576001600160a01b03841660009081526006602090815260408083208584528252808320548484528184208190558352600790915290208190555b5060009182526007602090815260408084208490556001600160a01b039094168352600681528383209183525290812055565b60085460009061158690600190611e30565b600083815260096020526040812054600880549394509092849081106115ae576115ae611b93565b9060005260206000200154905080600883815481106115cf576115cf611b93565b600091825260208083209091019290925582815260099091526040808220849055858252812055600880548061160757611607611e43565b6001900381819060005260206000200160009055905550505050565b600061162e836108bc565b6001600160a01b039093166000908152600660209081526040808320868452825280832085905593825260079052919091209190915550565b6001600160a01b0382166116bd5760405162461bcd60e51b815260206004820181905260248201527f4552433732313a206d696e7420746f20746865207a65726f206164647265737360448201526064016105f2565b6000818152600260205260409020546001600160a01b0316156117225760405162461bcd60e51b815260206004820152601c60248201527f4552433732313a20746f6b656e20616c7265616479206d696e7465640000000060448201526064016105f2565b611730600083836001611197565b6000818152600260205260409020546001600160a01b0316156117955760405162461bcd60e51b815260206004820152601c60248201527f4552433732313a20746f6b656e20616c7265616479206d696e7465640000000060448201526064016105f2565b6001600160a01b038216600081815260036020908152604080832080546001019055848352600290915280822080546001600160a01b0319168417905551839291907fddf252ad1be2c89b69c2b068fc378daa952ba7f163c4a11628f55a4df523b3ef908290a45050565b6001600160e01b031981168114610c1e57600080fd5b60006020828403121561182857600080fd5b8135610ba181611800565b60005b8381101561184e578181015183820152602001611836565b50506000910152565b6000815180845261186f816020860160208601611833565b601f01601f19169290920160200192915050565b602081526000610ba16020830184611857565b6000602082840312156118a857600080fd5b5035919050565b80356001600160a01b03811681146118c657600080fd5b919050565b600080604083850312156118de57600080fd5b6118e7836118af565b946020939093013593505050565b60008060006060848603121561190a57600080fd5b611913846118af565b9250611921602085016118af565b9150604084013590509250925092565b634e487b7160e01b600052604160045260246000fd5b600067ffffffffffffffff8084111561196257611962611931565b604051601f8501601f19908116603f0116810190828211818310171561198a5761198a611931565b816040528093508581528686860111156119a357600080fd5b858560208301376000602087830101525050509392505050565b6000602082840312156119cf57600080fd5b813567ffffffffffffffff8111156119e657600080fd5b8201601f810184136119f757600080fd5b610db584823560208401611947565b600060208284031215611a1857600080fd5b610ba1826118af565b60008060408385031215611a3457600080fd5b611a3d836118af565b915060208301358015158114611a5257600080fd5b809150509250929050565b60008060008060808587031215611a7357600080fd5b611a7c856118af565b9350611a8a602086016118af565b925060408501359150606085013567ffffffffffffffff811115611aad57600080fd5b8501601f81018713611abe57600080fd5b611acd87823560208401611947565b91505092959194509250565b60008060408385031215611aec57600080fd5b611af5836118af565b9150611b03602084016118af565b90509250929050565b600181811c90821680611b2057607f821691505b602082108103611b4057634e487b7160e01b600052602260045260246000fd5b50919050565b6020808252602d908201527f4552433732313a2063616c6c6572206973206e6f7420746f6b656e206f776e6560408201526c1c881bdc88185c1c1c9bdd9959609a1b606082015260800190565b634e487b7160e01b600052603260045260246000fd5b601f82111561069357600081815260208120601f850160051c81016020861015611bd05750805b601f850160051c820191505b81811015611bef57828155600101611bdc565b505050505050565b815167ffffffffffffffff811115611c1157611c11611931565b611c2581611c1f8454611b0c565b84611ba9565b602080601f831160018114611c5a5760008415611c425750858301515b600019600386901b1c1916600185901b178555611bef565b600085815260208120601f198616915b82811015611c8957888601518255948401946001909101908401611c6a565b5085821015611ca75787850151600019600388901b60f8161c191681555b5050505050600190811b01905550565b634e487b7160e01b600052601160045260246000fd5b808201808211156104bf576104bf611cb7565b80820281158282048414176104bf576104bf611cb7565b600060018201611d0957611d09611cb7565b5060010190565b60008351611d22818460208801611833565b835190830190611d36818360208801611833565b01949350505050565b60208082526025908201527f4552433732313a207472616e736665722066726f6d20696e636f72726563742060408201526437bbb732b960d91b606082015260800190565b60208082526032908201527f4552433732313a207472616e7366657220746f206e6f6e20455243373231526560408201527131b2b4bb32b91034b6b83632b6b2b73a32b960711b606082015260800190565b6001600160a01b0385811682528416602082015260408101839052608060608201819052600090611e0990830184611857565b9695505050505050565b600060208284031215611e2557600080fd5b8151610ba181611800565b818103818111156104bf576104bf611cb7565b634e487b7160e01b600052603160045260246000fdfea26469706673582212200df58c3a00e7370ed2e31ef0056460aee2f08ff030f3cee8dd4106eb915e715964736f6c63430008130033",
  "immutableReferences": {},
  "source": "// SPDX-License-Identifier: MIT\npragma solidity ^0.8.0;\n\nimport \"@openzeppelin/contracts/token/ERC721/extensions/ERC721Enumerable.sol\";\nimport \"@openzeppelin/contracts/access/Ownable.sol\";\n\ncontract NFTCollection is ERC721Enumerable, Ownable {\n\tuint256 public constant MAX_SUPPLY = 10000;\n\tuint256 public constant PRICE = 0.05 ether;\n\tuint256 public constant MAX_MINT_PER_USER = 5;\n\tstring private _baseTokenURI;\n\n\tuint256 private _nextTokenId = 1;\n\tmapping(address => uint256) private _mintedTokensCount;\n\n\tconstructor(string memory baseURI) ERC721(\"NFTCollection\", \"NFTC\") {\n\t\trequire(bytes(baseURI).length > 0, \"Base URI cannot be empty\");\n\t\tsetBaseURI(baseURI);\n\t}\n\n\tfunction mint(uint256 numberOfTokens) public payable {\n\t\trequire(totalSupply() + numberOfTokens <= MAX_SUPPLY, \"Exceeds MAX_SUPPLY\");\n\t\trequire(msg.value >= PRICE * numberOfTokens, \"Ether sent is not correct\");\n\t\trequire(\n\t\t\t_mintedTokensCount[msg.sender] + numberOfTokens <= MAX_MINT_PER_USER,\n\t\t\t\"Exceeds MAX_MINT_PER_USER\"\n\t\t);\n\n\t\tfor (uint256 i = 0; i < numberOfTokens; i++) {\n\t\t\tuint256 mintIndex = _nextTokenId;\n\t\t\tif (totalSupply() < MAX_SUPPLY) {\n\t\t\t\t_safeMint(msg.sender, mintIndex);\n\t\t\t\t_nextTokenId++;\n\t\t\t\t_mintedTokensCount[msg.sender]++;\n\t\t\t}\n\t\t}\n\t}\n\n\tfunction setBaseURI(string memory baseURI) public onlyOwner {\n\t\t_baseTokenURI = baseURI;\n\t}\n\n\tfunction _baseURI() internal view override returns (string memory) {\n\t\treturn _baseTokenURI;\n\t}\n\n\tfunction withdraw() public onlyOwner {\n\t\tuint256 balance = address(this).balance;\n\t\tpayable(msg.sender).transfer(balance);\n\t}\n}\n",
  "sourcePath": "/Users/zafeirious/Desktop/nft-collection/contracts/NFTCollection.sol",
  "compiler": {
    "name": "solc",
    "version": "0.8.19+commit.7dd6d404.Emscripten.clang"
  },
  "schemaVersion": "3.4.16",
  "updatedAt": "2024-07-30T21:58:17.798Z",
  "networkType": "ethereum",
  "devdoc": {
    "events": {
      "Approval(address,address,uint256)": {
        "details": "Emitted when `owner` enables `approved` to manage the `tokenId` token."
      },
      "ApprovalForAll(address,address,bool)": {
        "details": "Emitted when `owner` enables or disables (`approved`) `operator` to manage all of its assets."
      },
      "Transfer(address,address,uint256)": {
        "details": "Emitted when `tokenId` token is transferred from `from` to `to`."
      }
    },
    "kind": "dev",
    "methods": {
      "approve(address,uint256)": {
        "details": "See {IERC721-approve}."
      },
      "balanceOf(address)": {
        "details": "See {IERC721-balanceOf}."
      },
      "getApproved(uint256)": {
        "details": "See {IERC721-getApproved}."
      },
      "isApprovedForAll(address,address)": {
        "details": "See {IERC721-isApprovedForAll}."
      },
      "name()": {
        "details": "See {IERC721Metadata-name}."
      },
      "owner()": {
        "details": "Returns the address of the current owner."
      },
      "ownerOf(uint256)": {
        "details": "See {IERC721-ownerOf}."
      },
      "renounceOwnership()": {
        "details": "Leaves the contract without owner. It will not be possible to call `onlyOwner` functions. Can only be called by the current owner. NOTE: Renouncing ownership will leave the contract without an owner, thereby disabling any functionality that is only available to the owner."
      },
      "safeTransferFrom(address,address,uint256)": {
        "details": "See {IERC721-safeTransferFrom}."
      },
      "safeTransferFrom(address,address,uint256,bytes)": {
        "details": "See {IERC721-safeTransferFrom}."
      },
      "setApprovalForAll(address,bool)": {
        "details": "See {IERC721-setApprovalForAll}."
      },
      "supportsInterface(bytes4)": {
        "details": "See {IERC165-supportsInterface}."
      },
      "symbol()": {
        "details": "See {IERC721Metadata-symbol}."
      },
      "tokenByIndex(uint256)": {
        "details": "See {IERC721Enumerable-tokenByIndex}."
      },
      "tokenOfOwnerByIndex(address,uint256)": {
        "details": "See {IERC721Enumerable-tokenOfOwnerByIndex}."
      },
      "tokenURI(uint256)": {
        "details": "See {IERC721Metadata-tokenURI}."
      },
      "totalSupply()": {
        "details": "See {IERC721Enumerable-totalSupply}."
      },
      "transferFrom(address,address,uint256)": {
        "details": "See {IERC721-transferFrom}."
      },
      "transferOwnership(address)": {
        "details": "Transfers ownership of the contract to a new account (`newOwner`). Can only be called by the current owner."
      }
    },
    "version": 1
  },
  "userdoc": {
    "kind": "user",
    "methods": {},
    "version": 1
  }
}